{
  "_format": "hh-sol-artifact-1",
  "contractName": "Land",
  "sourceName": "contracts/Land.sol",
  "abi": [
    {
      "inputs": [],
      "stateMutability": "nonpayable",
      "type": "constructor"
    },
    {
      "anonymous": false,
      "inputs": [
        {
          "indexed": false,
          "internalType": "uint256",
          "name": "landId",
          "type": "uint256"
        },
        {
          "indexed": false,
          "internalType": "address",
          "name": "buyer",
          "type": "address"
        },
        {
          "indexed": false,
          "internalType": "uint256",
          "name": "amount",
          "type": "uint256"
        }
      ],
      "name": "PaymentSuccessful",
      "type": "event"
    },
    {
      "inputs": [
        {
          "internalType": "address",
          "name": "",
          "type": "address"
        }
      ],
      "name": "InspectorMapping",
      "outputs": [
        {
          "internalType": "uint256",
          "name": "id",
          "type": "uint256"
        },
        {
          "internalType": "address",
          "name": "addr",
          "type": "address"
        },
        {
          "internalType": "string",
          "name": "name",
          "type": "string"
        },
        {
          "internalType": "uint256",
          "name": "age",
          "type": "uint256"
        },
        {
          "internalType": "string",
          "name": "designation",
          "type": "string"
        },
        {
          "internalType": "string",
          "name": "city",
          "type": "string"
        }
      ],
      "stateMutability": "view",
      "type": "function"
    },
    {
      "inputs": [
        {
          "internalType": "address",
          "name": "",
          "type": "address"
        }
      ],
      "name": "UserMapping",
      "outputs": [
        {
          "internalType": "address",
          "name": "id",
          "type": "address"
        },
        {
          "internalType": "string",
          "name": "name",
          "type": "string"
        },
        {
          "internalType": "uint256",
          "name": "age",
          "type": "uint256"
        },
        {
          "internalType": "string",
          "name": "city",
          "type": "string"
        },
        {
          "internalType": "string",
          "name": "aadharNumber",
          "type": "string"
        },
        {
          "internalType": "string",
          "name": "panNumber",
          "type": "string"
        },
        {
          "internalType": "string",
          "name": "document",
          "type": "string"
        },
        {
          "internalType": "string",
          "name": "email",
          "type": "string"
        },
        {
          "internalType": "bool",
          "name": "isUserVerified",
          "type": "bool"
        }
      ],
      "stateMutability": "view",
      "type": "function"
    },
    {
      "inputs": [
        {
          "internalType": "uint256",
          "name": "_requestId",
          "type": "uint256"
        }
      ],
      "name": "acceptRequest",
      "outputs": [],
      "stateMutability": "nonpayable",
      "type": "function"
    },
    {
      "inputs": [
        {
          "internalType": "uint256",
          "name": "_area",
          "type": "uint256"
        },
        {
          "internalType": "string",
          "name": "_landAddress",
          "type": "string"
        },
        {
          "internalType": "uint256",
          "name": "_landPrice",
          "type": "uint256"
        },
        {
          "internalType": "string",
          "name": "_allLatiLongi",
          "type": "string"
        },
        {
          "internalType": "uint256",
          "name": "propertyPID",
          "type": "uint256"
        },
        {
          "internalType": "string",
          "name": "_surveyNumber",
          "type": "string"
        },
        {
          "internalType": "string",
          "name": "_document",
          "type": "string"
        }
      ],
      "name": "addLand",
      "outputs": [],
      "stateMutability": "nonpayable",
      "type": "function"
    },
    {
      "inputs": [
        {
          "internalType": "address",
          "name": "_addr",
          "type": "address"
        },
        {
          "internalType": "string",
          "name": "_name",
          "type": "string"
        },
        {
          "internalType": "uint256",
          "name": "_age",
          "type": "uint256"
        },
        {
          "internalType": "string",
          "name": "_designation",
          "type": "string"
        },
        {
          "internalType": "string",
          "name": "_city",
          "type": "string"
        }
      ],
      "name": "addLandInspector",
      "outputs": [
        {
          "internalType": "bool",
          "name": "",
          "type": "bool"
        }
      ],
      "stateMutability": "nonpayable",
      "type": "function"
    },
    {
      "inputs": [
        {
          "internalType": "uint256",
          "name": "",
          "type": "uint256"
        }
      ],
      "name": "allLandInspectorList",
      "outputs": [
        {
          "internalType": "address",
          "name": "",
          "type": "address"
        }
      ],
      "stateMutability": "view",
      "type": "function"
    },
    {
      "inputs": [
        {
          "internalType": "uint256",
          "name": "",
          "type": "uint256"
        }
      ],
      "name": "allLandList",
      "outputs": [
        {
          "internalType": "uint256",
          "name": "",
          "type": "uint256"
        }
      ],
      "stateMutability": "view",
      "type": "function"
    },
    {
      "inputs": [
        {
          "internalType": "uint256",
          "name": "",
          "type": "uint256"
        }
      ],
      "name": "allUsersList",
      "outputs": [
        {
          "internalType": "address",
          "name": "",
          "type": "address"
        }
      ],
      "stateMutability": "view",
      "type": "function"
    },
    {
      "inputs": [
        {
          "internalType": "address",
          "name": "_addr",
          "type": "address"
        }
      ],
      "name": "changeContractOwner",
      "outputs": [],
      "stateMutability": "nonpayable",
      "type": "function"
    },
    {
      "inputs": [],
      "name": "contractOwner",
      "outputs": [
        {
          "internalType": "address",
          "name": "",
          "type": "address"
        }
      ],
      "stateMutability": "view",
      "type": "function"
    },
    {
      "inputs": [],
      "name": "documentId",
      "outputs": [
        {
          "internalType": "uint256",
          "name": "",
          "type": "uint256"
        }
      ],
      "stateMutability": "view",
      "type": "function"
    },
    {
      "inputs": [],
      "name": "getContractOwner",
      "outputs": [
        {
          "internalType": "address",
          "name": "",
          "type": "address"
        }
      ],
      "stateMutability": "view",
      "type": "function"
    },
    {
      "inputs": [
        {
          "internalType": "uint256",
          "name": "landId",
          "type": "uint256"
        }
      ],
      "name": "getLandDetails",
      "outputs": [
        {
          "internalType": "uint256",
          "name": "",
          "type": "uint256"
        },
        {
          "internalType": "uint256",
          "name": "",
          "type": "uint256"
        },
        {
          "internalType": "string",
          "name": "",
          "type": "string"
        },
        {
          "internalType": "uint256",
          "name": "",
          "type": "uint256"
        },
        {
          "internalType": "string",
          "name": "",
          "type": "string"
        },
        {
          "internalType": "uint256",
          "name": "",
          "type": "uint256"
        },
        {
          "internalType": "string",
          "name": "",
          "type": "string"
        },
        {
          "internalType": "bool",
          "name": "",
          "type": "bool"
        },
        {
          "internalType": "address",
          "name": "",
          "type": "address"
        },
        {
          "internalType": "bool",
          "name": "",
          "type": "bool"
        },
        {
          "internalType": "string",
          "name": "",
          "type": "string"
        }
      ],
      "stateMutability": "view",
      "type": "function"
    },
    {
      "inputs": [
        {
          "internalType": "address",
          "name": "userAddress",
          "type": "address"
        }
      ],
      "name": "getUser",
      "outputs": [
        {
          "internalType": "address",
          "name": "id",
          "type": "address"
        },
        {
          "internalType": "string",
          "name": "name",
          "type": "string"
        },
        {
          "internalType": "uint256",
          "name": "age",
          "type": "uint256"
        },
        {
          "internalType": "string",
          "name": "city",
          "type": "string"
        },
        {
          "internalType": "string",
          "name": "aadharNumber",
          "type": "string"
        },
        {
          "internalType": "string",
          "name": "panNumber",
          "type": "string"
        },
        {
          "internalType": "string",
          "name": "document",
          "type": "string"
        },
        {
          "internalType": "string",
          "name": "email",
          "type": "string"
        },
        {
          "internalType": "bool",
          "name": "isUserVerified",
          "type": "bool"
        }
      ],
      "stateMutability": "view",
      "type": "function"
    },
    {
      "inputs": [
        {
          "internalType": "address",
          "name": "_addr",
          "type": "address"
        }
      ],
      "name": "isContractOwner",
      "outputs": [
        {
          "internalType": "bool",
          "name": "",
          "type": "bool"
        }
      ],
      "stateMutability": "view",
      "type": "function"
    },
    {
      "inputs": [
        {
          "internalType": "address",
          "name": "_id",
          "type": "address"
        }
      ],
      "name": "isLandInspector",
      "outputs": [
        {
          "internalType": "bool",
          "name": "",
          "type": "bool"
        }
      ],
      "stateMutability": "view",
      "type": "function"
    },
    {
      "inputs": [
        {
          "internalType": "uint256",
          "name": "id",
          "type": "uint256"
        }
      ],
      "name": "isLandVerified",
      "outputs": [
        {
          "internalType": "bool",
          "name": "",
          "type": "bool"
        }
      ],
      "stateMutability": "view",
      "type": "function"
    },
    {
      "inputs": [
        {
          "internalType": "uint256",
          "name": "",
          "type": "uint256"
        }
      ],
      "name": "isPaymentMade",
      "outputs": [
        {
          "internalType": "bool",
          "name": "",
          "type": "bool"
        }
      ],
      "stateMutability": "view",
      "type": "function"
    },
    {
      "inputs": [
        {
          "internalType": "address",
          "name": "_addr",
          "type": "address"
        }
      ],
      "name": "isUserRegistered",
      "outputs": [
        {
          "internalType": "bool",
          "name": "",
          "type": "bool"
        }
      ],
      "stateMutability": "view",
      "type": "function"
    },
    {
      "inputs": [
        {
          "internalType": "address",
          "name": "id",
          "type": "address"
        }
      ],
      "name": "isUserVerified",
      "outputs": [
        {
          "internalType": "bool",
          "name": "",
          "type": "bool"
        }
      ],
      "stateMutability": "view",
      "type": "function"
    },
    {
      "inputs": [
        {
          "internalType": "uint256",
          "name": "id",
          "type": "uint256"
        }
      ],
      "name": "landPrice",
      "outputs": [
        {
          "internalType": "uint256",
          "name": "",
          "type": "uint256"
        }
      ],
      "stateMutability": "view",
      "type": "function"
    },
    {
      "inputs": [
        {
          "internalType": "uint256",
          "name": "",
          "type": "uint256"
        }
      ],
      "name": "landRequestMapping",
      "outputs": [
        {
          "internalType": "uint256",
          "name": "reqId",
          "type": "uint256"
        },
        {
          "internalType": "address payable",
          "name": "sellerId",
          "type": "address"
        },
        {
          "internalType": "address payable",
          "name": "buyerId",
          "type": "address"
        },
        {
          "internalType": "uint256",
          "name": "landId",
          "type": "uint256"
        },
        {
          "internalType": "enum Land.reqStatus",
          "name": "requestStatus",
          "type": "uint8"
        },
        {
          "internalType": "bool",
          "name": "isPaymentDone",
          "type": "bool"
        }
      ],
      "stateMutability": "view",
      "type": "function"
    },
    {
      "inputs": [
        {
          "internalType": "uint256",
          "name": "",
          "type": "uint256"
        }
      ],
      "name": "lands",
      "outputs": [
        {
          "internalType": "uint256",
          "name": "id",
          "type": "uint256"
        },
        {
          "internalType": "uint256",
          "name": "area",
          "type": "uint256"
        },
        {
          "internalType": "string",
          "name": "landAddress",
          "type": "string"
        },
        {
          "internalType": "uint256",
          "name": "landPrice",
          "type": "uint256"
        },
        {
          "internalType": "string",
          "name": "allLatitudeLongitude",
          "type": "string"
        },
        {
          "internalType": "uint256",
          "name": "propertyPID",
          "type": "uint256"
        },
        {
          "internalType": "string",
          "name": "physicalSurveyNumber",
          "type": "string"
        },
        {
          "internalType": "string",
          "name": "document",
          "type": "string"
        },
        {
          "internalType": "bool",
          "name": "isForSell",
          "type": "bool"
        },
        {
          "internalType": "address payable",
          "name": "ownerAddress",
          "type": "address"
        },
        {
          "internalType": "bool",
          "name": "isLandVerified",
          "type": "bool"
        }
      ],
      "stateMutability": "view",
      "type": "function"
    },
    {
      "inputs": [],
      "name": "landsCount",
      "outputs": [
        {
          "internalType": "uint256",
          "name": "",
          "type": "uint256"
        }
      ],
      "stateMutability": "view",
      "type": "function"
    },
    {
      "inputs": [
        {
          "internalType": "uint256",
          "name": "id",
          "type": "uint256"
        }
      ],
      "name": "makeItforSell",
      "outputs": [],
      "stateMutability": "nonpayable",
      "type": "function"
    },
    {
      "inputs": [
        {
          "internalType": "uint256",
          "name": "id",
          "type": "uint256"
        }
      ],
      "name": "makeLandForSell",
      "outputs": [],
      "stateMutability": "nonpayable",
      "type": "function"
    },
    {
      "inputs": [
        {
          "internalType": "uint256",
          "name": "_requestId",
          "type": "uint256"
        }
      ],
      "name": "makePayment",
      "outputs": [],
      "stateMutability": "payable",
      "type": "function"
    },
    {
      "inputs": [
        {
          "internalType": "address",
          "name": "id",
          "type": "address"
        }
      ],
      "name": "myAllLands",
      "outputs": [
        {
          "internalType": "uint256[]",
          "name": "",
          "type": "uint256[]"
        }
      ],
      "stateMutability": "view",
      "type": "function"
    },
    {
      "inputs": [],
      "name": "myReceivedLandRequests",
      "outputs": [
        {
          "internalType": "uint256[]",
          "name": "",
          "type": "uint256[]"
        }
      ],
      "stateMutability": "view",
      "type": "function"
    },
    {
      "inputs": [],
      "name": "mySentLandRequests",
      "outputs": [
        {
          "internalType": "uint256[]",
          "name": "",
          "type": "uint256[]"
        }
      ],
      "stateMutability": "view",
      "type": "function"
    },
    {
      "inputs": [
        {
          "internalType": "string",
          "name": "_name",
          "type": "string"
        },
        {
          "internalType": "uint256",
          "name": "_age",
          "type": "uint256"
        },
        {
          "internalType": "string",
          "name": "_city",
          "type": "string"
        },
        {
          "internalType": "string",
          "name": "_aadharNumber",
          "type": "string"
        },
        {
          "internalType": "string",
          "name": "_panNumber",
          "type": "string"
        },
        {
          "internalType": "string",
          "name": "_document",
          "type": "string"
        },
        {
          "internalType": "string",
          "name": "_email",
          "type": "string"
        }
      ],
      "name": "registerUser",
      "outputs": [],
      "stateMutability": "nonpayable",
      "type": "function"
    },
    {
      "inputs": [
        {
          "internalType": "uint256",
          "name": "_requestId",
          "type": "uint256"
        }
      ],
      "name": "rejectRequest",
      "outputs": [],
      "stateMutability": "nonpayable",
      "type": "function"
    },
    {
      "inputs": [
        {
          "internalType": "address",
          "name": "_addr",
          "type": "address"
        }
      ],
      "name": "removeLandInspector",
      "outputs": [],
      "stateMutability": "nonpayable",
      "type": "function"
    },
    {
      "inputs": [
        {
          "internalType": "uint256",
          "name": "_landId",
          "type": "uint256"
        }
      ],
      "name": "requestForBuy",
      "outputs": [],
      "stateMutability": "nonpayable",
      "type": "function"
    },
    {
      "inputs": [
        {
          "internalType": "uint256",
          "name": "id",
          "type": "uint256"
        }
      ],
      "name": "requestStatus",
      "outputs": [
        {
          "internalType": "bool",
          "name": "",
          "type": "bool"
        }
      ],
      "stateMutability": "view",
      "type": "function"
    },
    {
      "inputs": [],
      "name": "returnAllLandInspectorList",
      "outputs": [
        {
          "components": [
            {
              "internalType": "uint256",
              "name": "id",
              "type": "uint256"
            },
            {
              "internalType": "address",
              "name": "addr",
              "type": "address"
            },
            {
              "internalType": "string",
              "name": "name",
              "type": "string"
            },
            {
              "internalType": "uint256",
              "name": "age",
              "type": "uint256"
            },
            {
              "internalType": "string",
              "name": "designation",
              "type": "string"
            },
            {
              "internalType": "string",
              "name": "city",
              "type": "string"
            }
          ],
          "internalType": "struct Land.LandInspector[]",
          "name": "",
          "type": "tuple[]"
        }
      ],
      "stateMutability": "view",
      "type": "function"
    },
    {
      "inputs": [],
      "name": "returnAllLandList",
      "outputs": [
        {
          "internalType": "uint256[]",
          "name": "",
          "type": "uint256[]"
        }
      ],
      "stateMutability": "view",
      "type": "function"
    },
    {
      "inputs": [],
      "name": "returnAllUserList",
      "outputs": [
        {
          "components": [
            {
              "internalType": "address",
              "name": "id",
              "type": "address"
            },
            {
              "internalType": "string",
              "name": "name",
              "type": "string"
            },
            {
              "internalType": "uint256",
              "name": "age",
              "type": "uint256"
            },
            {
              "internalType": "string",
              "name": "city",
              "type": "string"
            },
            {
              "internalType": "string",
              "name": "aadharNumber",
              "type": "string"
            },
            {
              "internalType": "string",
              "name": "panNumber",
              "type": "string"
            },
            {
              "internalType": "string",
              "name": "document",
              "type": "string"
            },
            {
              "internalType": "string",
              "name": "email",
              "type": "string"
            },
            {
              "internalType": "bool",
              "name": "isUserVerified",
              "type": "bool"
            }
          ],
          "internalType": "struct Land.User[]",
          "name": "",
          "type": "tuple[]"
        }
      ],
      "stateMutability": "view",
      "type": "function"
    },
    {
      "inputs": [],
      "name": "returnPaymentDoneList",
      "outputs": [
        {
          "internalType": "uint256[]",
          "name": "",
          "type": "uint256[]"
        }
      ],
      "stateMutability": "view",
      "type": "function"
    },
    {
      "inputs": [
        {
          "internalType": "uint256",
          "name": "_requestId",
          "type": "uint256"
        },
        {
          "internalType": "string",
          "name": "documentUrl",
          "type": "string"
        }
      ],
      "name": "transferOwnerShip",
      "outputs": [
        {
          "internalType": "bool",
          "name": "",
          "type": "bool"
        }
      ],
      "stateMutability": "nonpayable",
      "type": "function"
    },
    {
      "inputs": [],
      "name": "userCount",
      "outputs": [
        {
          "internalType": "uint256",
          "name": "",
          "type": "uint256"
        }
      ],
      "stateMutability": "view",
      "type": "function"
    },
    {
      "inputs": [
        {
          "internalType": "uint256",
          "name": "_id",
          "type": "uint256"
        }
      ],
      "name": "verifyLand",
      "outputs": [],
      "stateMutability": "nonpayable",
      "type": "function"
    },
    {
      "inputs": [
        {
          "internalType": "address",
          "name": "_userId",
          "type": "address"
        }
      ],
      "name": "verifyUser",
      "outputs": [],
      "stateMutability": "nonpayable",
      "type": "function"
    }
  ],
  "bytecode": "0x608060405234801561001057600080fd5b50600080546001600160a01b03191633179055613e7d806100326000396000f3fe60806040526004361061025c5760003560e01c80637bbdc7ab11610144578063d333d0ec116100b6578063e165af871161007a578063e165af87146107f3578063e261f1e51461082c578063e797ef7d14610863578063edfbe24714610893578063f9c43bdf146108b3578063fe0cb7dc146108d357600080fd5b8063d333d0ec146106eb578063d4f309611461075f578063d61ff68c14610774578063d72ca9ec14610794578063de117688146107c457600080fd5b8063bafaf49e11610108578063bafaf49e14610629578063c26e11eb1461064b578063c6dcdc371461066b578063ccfdc19b1461068b578063ce606ee0146106ab578063d196ebf2146106cb57600080fd5b80637bbdc7ab146105815780639983c57d146105a35780639c32e3b4146105c3578063a846fc8f146105d8578063ace417e0146105ed57600080fd5b8063499701b2116101dd5780636163f8ec116101a15780636163f8ec1461048a57806364efa002146104aa5780636cbf6cf8146104dc5780636f77926b146105165780637517e00f1461054b57806378f7c83f1461056b57600080fd5b8063499701b2146103f55780634a635e0d146104175780634ba1f098146104375780634d813120146104575780635114cb521461047757600080fd5b80632d7788db116102245780632d7788db146103435780633ead67b514610363578063442890d51461038357806345ed447b146103b557806348277fc3146103d557600080fd5b8063041a85281461026157806307973ccf14610283578063163f7522146102ac5780631a313202146102f55780631c9afd0f1461032d575b600080fd5b34801561026d57600080fd5b5061028161027c366004613501565b61090a565b005b34801561028f57600080fd5b5061029960025481565b6040519081526020015b60405180910390f35b3480156102b857600080fd5b506102e56102c7366004613536565b6001600160a01b03166000908152600b602052604090205460ff1690565b60405190151581526020016102a3565b34801561030157600080fd5b506102e5610310366004613501565b6000908152600e6020526040902060040154610100900460ff1690565b34801561033957600080fd5b5061029960035481565b34801561034f57600080fd5b5061028161035e366004613501565b61099b565b34801561036f57600080fd5b5061028161037e366004613536565b610a36565b34801561038f57600080fd5b506000546001600160a01b03165b6040516001600160a01b0390911681526020016102a3565b3480156103c157600080fd5b5061039d6103d0366004613501565b610ab3565b3480156103e157600080fd5b506102996103f0366004613501565b610add565b34801561040157600080fd5b5061040a610afe565b6040516102a39190613558565b34801561042357600080fd5b506102e561043236600461363f565b610b5f565b34801561044357600080fd5b50610281610452366004613501565b610e07565b34801561046357600080fd5b50610281610472366004613536565b610e9d565b610281610485366004613501565b610f23565b34801561049657600080fd5b506102816104a5366004613501565b61105f565b3480156104b657600080fd5b506104ca6104c5366004613536565b611239565b6040516102a3969594939291906136d3565b3480156104e857600080fd5b506102e56104f7366004613501565b6000908152600d6020526040902060080154600160a81b900460ff1690565b34801561052257600080fd5b50610536610531366004613536565b611410565b6040516102a399989796959493929190613736565b34801561055757600080fd5b50610281610566366004613536565b611898565b34801561057757600080fd5b5061029960045481565b34801561058d57600080fd5b50610596611ad9565b6040516102a391906137df565b3480156105af57600080fd5b5061039d6105be366004613501565b611dd2565b3480156105cf57600080fd5b5061040a611de2565b3480156105e457600080fd5b5061040a611e41565b3480156105f957600080fd5b506102e5610608366004613536565b6001600160a01b031660009081526009602052604090206008015460ff1690565b34801561063557600080fd5b5061063e611ebf565b6040516102a391906138ac565b34801561065757600080fd5b50610281610666366004613501565b612392565b34801561067757600080fd5b506102e56106863660046139c7565b612459565b34801561069757600080fd5b506102816106a6366004613a6a565b6125f3565b3480156106b757600080fd5b5060005461039d906001600160a01b031681565b3480156106d757600080fd5b5061040a6106e6366004613536565b61282d565b3480156106f757600080fd5b5061074d610706366004613501565b600e602052600090815260409020805460018201546002830154600384015460049094015492936001600160a01b0392831693929091169160ff8082169161010090041686565b6040516102a396959493929190613b4a565b34801561076b57600080fd5b5061040a612899565b34801561078057600080fd5b5061053661078f366004613536565b6128ef565b3480156107a057600080fd5b506102996107af366004613501565b6000908152600d602052604090206003015490565b3480156107d057600080fd5b506102e56107df366004613536565b6000546001600160a01b0391821691161490565b3480156107ff57600080fd5b506102e561080e366004613536565b6001600160a01b031660009081526008602052604090205460ff1690565b34801561083857600080fd5b5061084c610847366004613501565b612c73565b6040516102a39b9a99989796959493929190613ba6565b34801561086f57600080fd5b506102e561087e366004613501565b60116020526000908152604090205460ff1681565b34801561089f57600080fd5b506102816108ae366004613c40565b612ef8565b3480156108bf57600080fd5b506102816108ce366004613501565b613104565b3480156108df57600080fd5b506108f36108ee366004613501565b613187565b6040516102a39b9a99989796959493929190613d02565b6000818152600d602052604090206008015461010090046001600160a01b0316331461097d5760405162461bcd60e51b815260206004820181905260248201527f4f6e6c7920746865206f776e65722063616e2073656c6c20746865206c616e6460448201526064015b60405180910390fd5b6000908152600d60205260409020600801805460ff19166001179055565b6000818152600e60205260409020600101546001600160a01b03163314610a0f5760405162461bcd60e51b815260206004820152602260248201527f4f6e6c792073656c6c65722063616e2072656a656374207468652072657175656044820152611cdd60f21b6064820152608401610974565b6000818152600e6020526040902060040180546002919060ff19166001835b021790555050565b6000546001600160a01b0316331415610a915760405162461bcd60e51b815260206004820152601a60248201527f596f7520617265206e6f7420636f6e7472616374206f776e65720000000000006044820152606401610974565b600080546001600160a01b0319166001600160a01b0392909216919091179055565b600a8181548110610ac357600080fd5b6000918252602090912001546001600160a01b0316905081565b60128181548110610aed57600080fd5b600091825260209091200154905081565b336000908152600f6020908152604091829020805483518184028101840190945280845260609392830182828015610b5557602002820191906000526020600020905b815481526020019060010190808311610b41575b5050505050905090565b3360009081526008602052604081205460ff16610b7b57600080fd5b6000838152600e6020526040902060040154610100900460ff16610ba157506000610e01565b60048054906000610bb183613db4565b90915550506000838152600e602090815260408083206004808201805460ff1916909117905560028101546001600160a01b039081168552600c84528285206003830154815460018181018455928852958720909501949094559201549091168252812054905b81811015610d67576000858152600e6020908152604080832060038101546001909101546001600160a01b03168452600c909252909120805483908110610c6157610c61613dcf565b90600052602060002001541415610d55576000858152600e602090815260408083206001908101546001600160a01b03168452600c90925290912090610ca79084613de5565b81548110610cb757610cb7613dcf565b6000918252602080832090910154878352600e82526040808420600101546001600160a01b03168452600c9092529120805483908110610cf957610cf9613dcf565b6000918252602080832090910192909255868152600e82526040808220600101546001600160a01b03168252600c90925220805480610d3a57610d3a613dfc565b60019003818190600052602060002001600090559055610d67565b80610d5f81613db4565b915050610c18565b506000848152600e60209081526040808320600301548352600d82529091208451610d9a92600790920191860190613468565b5050506000828152600e602090815260408083206003810180548552600d9093528184206008908101805460ff1916905560029091015492548452922090910180546001600160a01b0390921661010002610100600160a81b031990921691909117905560015b92915050565b6000818152600e60205260409020600101546001600160a01b03163314610e7b5760405162461bcd60e51b815260206004820152602260248201527f4f6e6c792073656c6c65722063616e20616363657074207468652072657175656044820152611cdd60f21b6064820152608401610974565b6000818152600e6020526040902060040180546001919060ff19168280610a2e565b3360009081526008602052604090205460ff16610efc5760405162461bcd60e51b815260206004820181905260248201527f4f6e6c7920696e73706563746f72732063616e207665726966792075736572736044820152606401610974565b6001600160a01b03166000908152600960205260409020600801805460ff19166001179055565b6000818152600e60205260409020600201546001600160a01b031633148015610f72575060016000828152600e6020526040902060049081015460ff1690811115610f7057610f70613b34565b145b610f7b57600080fd5b6000818152600e6020908152604080832060048101805460ff1916600390811790915501548352600d9091528082206008015490516101009091046001600160a01b0316916108fc34801591909102929091818181858888f19350505050158015610fea573d6000803e3d6000fd5b506000818152600e602090815260408220600401805461ff001916610100179055601390527f4155c2f711f2cdd34f8262ab8fb9b7020a700fe7b6948222152f7670d1fdf34d805460018101825591527f3ce2cb385edcbf7185fd469186dd769993781141b215a1a4715ebb7f94fd59ab0155565b3360009081526009602052604090206008015460ff16801561109957506000818152600d6020526040902060080154600160a81b900460ff165b6110e55760405162461bcd60e51b815260206004820152601960248201527f55736572206f72206c616e64206e6f74207665726966696564000000000000006044820152606401610974565b600580549060006110f583613db4565b90915550506040805160c0810182526005548082526000848152600d60209081528482206008015461010090046001600160a01b0390811682860190815233868801908152606087018981526080880186815260a08901879052968652600e90945296909320855181559251600180850180549284166001600160a01b03199384161790559651600285018054919093169116179055516003820155905160048083018054949593949293909260ff19169184908111156111b8576111b8613b34565b021790555060a091909101516004909101805461ff00191661010092151583021790556000918252600d6020908152604080842060080154929092046001600160a01b03168352600f815281832060058054825460018181018555938752848720015533855260108352928420925483549182018455928452922090910155565b60066020526000908152604090208054600182015460028301805492936001600160a01b039092169261126b90613e12565b80601f016020809104026020016040519081016040528092919081815260200182805461129790613e12565b80156112e45780601f106112b9576101008083540402835291602001916112e4565b820191906000526020600020905b8154815290600101906020018083116112c757829003601f168201915b5050505050908060030154908060040180546112ff90613e12565b80601f016020809104026020016040519081016040528092919081815260200182805461132b90613e12565b80156113785780601f1061134d57610100808354040283529160200191611378565b820191906000526020600020905b81548152906001019060200180831161135b57829003601f168201915b50505050509080600501805461138d90613e12565b80601f01602080910402602001604051908101604052809291908181526020018280546113b990613e12565b80156114065780601f106113db57610100808354040283529160200191611406565b820191906000526020600020905b8154815290600101906020018083116113e957829003601f168201915b5050505050905086565b6001600160a01b0381166000908152600b6020526040812054606090829082908190819081908190869060ff166114825760405162461bcd60e51b8152602060048201526016602482015275155cd95c881a5cc81b9bdd081c9959da5cdd195c995960521b6044820152606401610974565b6001600160a01b03808b16600090815260096020908152604080832081516101208101909252805490941681526001840180549394919391928401916114c790613e12565b80601f01602080910402602001604051908101604052809291908181526020018280546114f390613e12565b80156115405780601f1061151557610100808354040283529160200191611540565b820191906000526020600020905b81548152906001019060200180831161152357829003601f168201915b505050505081526020016002820154815260200160038201805461156390613e12565b80601f016020809104026020016040519081016040528092919081815260200182805461158f90613e12565b80156115dc5780601f106115b1576101008083540402835291602001916115dc565b820191906000526020600020905b8154815290600101906020018083116115bf57829003601f168201915b505050505081526020016004820180546115f590613e12565b80601f016020809104026020016040519081016040528092919081815260200182805461162190613e12565b801561166e5780601f106116435761010080835404028352916020019161166e565b820191906000526020600020905b81548152906001019060200180831161165157829003601f168201915b5050505050815260200160058201805461168790613e12565b80601f01602080910402602001604051908101604052809291908181526020018280546116b390613e12565b80156117005780601f106116d557610100808354040283529160200191611700565b820191906000526020600020905b8154815290600101906020018083116116e357829003601f168201915b5050505050815260200160068201805461171990613e12565b80601f016020809104026020016040519081016040528092919081815260200182805461174590613e12565b80156117925780601f1061176757610100808354040283529160200191611792565b820191906000526020600020905b81548152906001019060200180831161177557829003601f168201915b505050505081526020016007820180546117ab90613e12565b80601f01602080910402602001604051908101604052809291908181526020018280546117d790613e12565b80156118245780601f106117f957610100808354040283529160200191611824565b820191906000526020600020905b81548152906001019060200180831161180757829003601f168201915b505050505081526020016008820160009054906101000a900460ff1615151515815250509050806000015181602001518260400151836060015184608001518560a001518660c001518760e00151886101000151995099509950995099509950995099509950509193959799909294969850565b6000546001600160a01b031633146118f25760405162461bcd60e51b815260206004820152601a60248201527f596f7520617265206e6f7420636f6e7472616374206f776e65720000000000006044820152606401610974565b6001600160a01b03811660009081526008602052604090205460ff1661195a5760405162461bcd60e51b815260206004820152601860248201527f4c616e6420496e73706563746f72206e6f7420666f756e6400000000000000006044820152606401610974565b600754600090815b81811015611a6757836001600160a01b03166007828154811061198757611987613dcf565b6000918252602090912001546001600160a01b03161415611a555760076119af600184613de5565b815481106119bf576119bf613dcf565b600091825260209091200154600780546001600160a01b0390921691839081106119eb576119eb613dcf565b9060005260206000200160006101000a8154816001600160a01b0302191690836001600160a01b031602179055506007805480611a2a57611a2a613dfc565b600082815260209020810160001990810180546001600160a01b031916905501905560019250611a67565b80611a5f81613db4565b915050611962565b508115611a915750506001600160a01b03166000908152600860205260409020805460ff19169055565b60405162461bcd60e51b815260206004820152601f60248201527f496e73706563746f72206e6f7420666f756e6420696e20746865206c697374006044820152606401610974565b60075460609060008167ffffffffffffffff811115611afa57611afa61359c565b604051908082528060200260200182016040528015611b6d57816020015b611b5a6040518060c001604052806000815260200160006001600160a01b03168152602001606081526020016000815260200160608152602001606081525090565b815260200190600190039081611b185790505b50905060005b82811015611dcb576006600060078381548110611b9257611b92613dcf565b60009182526020808320909101546001600160a01b039081168452838201949094526040928301909120825160c081018452815481526001820154909416918401919091526002810180549192840191611beb90613e12565b80601f0160208091040260200160405190810160405280929190818152602001828054611c1790613e12565b8015611c645780601f10611c3957610100808354040283529160200191611c64565b820191906000526020600020905b815481529060010190602001808311611c4757829003601f168201915b5050505050815260200160038201548152602001600482018054611c8790613e12565b80601f0160208091040260200160405190810160405280929190818152602001828054611cb390613e12565b8015611d005780601f10611cd557610100808354040283529160200191611d00565b820191906000526020600020905b815481529060010190602001808311611ce357829003601f168201915b50505050508152602001600582018054611d1990613e12565b80601f0160208091040260200160405190810160405280929190818152602001828054611d4590613e12565b8015611d925780601f10611d6757610100808354040283529160200191611d92565b820191906000526020600020905b815481529060010190602001808311611d7557829003601f168201915b505050505081525050828281518110611dad57611dad613dcf565b60200260200101819052508080611dc390613db4565b915050611b73565b5092915050565b60078181548110610ac357600080fd5b33600090815260106020908152604091829020805483518184028101840190945280845260609392830182828015610b555760200282019190600052602060002090815481526020019060010190808311610b41575050505050905090565b6001600052601360209081527f4155c2f711f2cdd34f8262ab8fb9b7020a700fe7b6948222152f7670d1fdf34d8054604080518285028101850190915281815260609390929190830182828015610b555760200282019190600052602060002090815481526020019060010190808311610b41575050505050905090565b600a5460609060009067ffffffffffffffff811115611ee057611ee061359c565b604051908082528060200260200182016040528015611f6b57816020015b611f5860405180610120016040528060006001600160a01b03168152602001606081526020016000815260200160608152602001606081526020016060815260200160608152602001606081526020016000151581525090565b815260200190600190039081611efe5790505b50905060005b600a5481101561238c5760096000600a8381548110611f9257611f92613dcf565b60009182526020808320909101546001600160a01b039081168452838201949094526040928301909120825161012081019093528054909316825260018301805492939291840191611fe390613e12565b80601f016020809104026020016040519081016040528092919081815260200182805461200f90613e12565b801561205c5780601f106120315761010080835404028352916020019161205c565b820191906000526020600020905b81548152906001019060200180831161203f57829003601f168201915b505050505081526020016002820154815260200160038201805461207f90613e12565b80601f01602080910402602001604051908101604052809291908181526020018280546120ab90613e12565b80156120f85780601f106120cd576101008083540402835291602001916120f8565b820191906000526020600020905b8154815290600101906020018083116120db57829003601f168201915b5050505050815260200160048201805461211190613e12565b80601f016020809104026020016040519081016040528092919081815260200182805461213d90613e12565b801561218a5780601f1061215f5761010080835404028352916020019161218a565b820191906000526020600020905b81548152906001019060200180831161216d57829003601f168201915b505050505081526020016005820180546121a390613e12565b80601f01602080910402602001604051908101604052809291908181526020018280546121cf90613e12565b801561221c5780601f106121f15761010080835404028352916020019161221c565b820191906000526020600020905b8154815290600101906020018083116121ff57829003601f168201915b5050505050815260200160068201805461223590613e12565b80601f016020809104026020016040519081016040528092919081815260200182805461226190613e12565b80156122ae5780601f10612283576101008083540402835291602001916122ae565b820191906000526020600020905b81548152906001019060200180831161229157829003601f168201915b505050505081526020016007820180546122c790613e12565b80601f01602080910402602001604051908101604052809291908181526020018280546122f390613e12565b80156123405780601f1061231557610100808354040283529160200191612340565b820191906000526020600020905b81548152906001019060200180831161232357829003601f168201915b50505091835250506008919091015460ff161515602090910152825183908390811061236e5761236e613dcf565b6020026020010181905250808061238490613db4565b915050611f71565b50919050565b6000818152600d602052604090206008015461010090046001600160a01b0316331461240a5760405162461bcd60e51b815260206004820152602160248201527f4f6e6c7920746865206f776e65722063616e2073656c6c2074686973206c616e6044820152601960fa1b6064820152608401610974565b6000818152600d6020526040902054811461097d5760405162461bcd60e51b815260206004820152600f60248201526e125b9d985b1a59081b185b99081251608a1b6044820152606401610974565b600080546001600160a01b031633146124b45760405162461bcd60e51b815260206004820152601e60248201527f596f7520617265206e6f742074686520636f6e7472616374206f776e657200006044820152606401610974565b6001600160a01b0386166000908152600860205260408120805460ff191660019081179091558054916124e683613db4565b90915550506007805460018181019092557fa66cc928b5edb82af9bd49922954155ab7b0942694bea4ce44661d9a8736c6880180546001600160a01b03808a166001600160a01b031992831681179093556040805160c0810182528554815260208181018681528284018d8152606084018d9052608084018c905260a084018b90526000978852600683529390962082518155955196860180549790941696909416959095179091555180516125a29260028501920190613468565b5060608201516003820155608082015180516125c8916004840191602090910190613468565b5060a082015180516125e4916005840191602090910190613468565b50600198975050505050505050565b3360009081526009602052604090206008015460ff1661265f5760405162461bcd60e51b815260206004820152602160248201527f55736572206d75737420626520766572696669656420746f20616464206c616e6044820152601960fa1b6064820152608401610974565b6003805490600061266f83613db4565b9091555050604080516101608101825260035480825260208083018b81528385018b8152606085018b9052608085018a905260a0850189905260c0850188905260e0850187905260006101008601819052336101208701526101408601819052938452600d835294909220835181559151600183015592518051929391926126fd9260028501920190613468565b506060820151600382015560808201518051612723916004840191602090910190613468565b5060a0820151600582015560c08201518051612749916006840191602090910190613468565b5060e08201518051612765916007840191602090910190613468565b50610100828101516008929092018054610120850151610140909501516001600160a81b0319909116931515610100600160a81b031916939093176001600160a01b039094169091029290921760ff60a81b1916600160a81b911515919091021790555050336000908152600c602090815260408220600380548254600181810185559386529385209093019290925590546012805492830181559092527fbb8a6a4669ba250d26cd7a459eca9d215f8307e33aebe50379bc5a3617ec344401555050505050565b6001600160a01b0381166000908152600c602090815260409182902080548351818402810184019094528084526060939283018282801561288d57602002820191906000526020600020905b815481526020019060010190808311612879575b50505050509050919050565b60606012805480602002602001604051908101604052809291908181526020018280548015610b555760200282019190600052602060002090815481526020019060010190808311610b41575050505050905090565b600960205260009081526040902080546001820180546001600160a01b03909216929161291b90613e12565b80601f016020809104026020016040519081016040528092919081815260200182805461294790613e12565b80156129945780601f1061296957610100808354040283529160200191612994565b820191906000526020600020905b81548152906001019060200180831161297757829003601f168201915b5050505050908060020154908060030180546129af90613e12565b80601f01602080910402602001604051908101604052809291908181526020018280546129db90613e12565b8015612a285780601f106129fd57610100808354040283529160200191612a28565b820191906000526020600020905b815481529060010190602001808311612a0b57829003601f168201915b505050505090806004018054612a3d90613e12565b80601f0160208091040260200160405190810160405280929190818152602001828054612a6990613e12565b8015612ab65780601f10612a8b57610100808354040283529160200191612ab6565b820191906000526020600020905b815481529060010190602001808311612a9957829003601f168201915b505050505090806005018054612acb90613e12565b80601f0160208091040260200160405190810160405280929190818152602001828054612af790613e12565b8015612b445780601f10612b1957610100808354040283529160200191612b44565b820191906000526020600020905b815481529060010190602001808311612b2757829003601f168201915b505050505090806006018054612b5990613e12565b80601f0160208091040260200160405190810160405280929190818152602001828054612b8590613e12565b8015612bd25780601f10612ba757610100808354040283529160200191612bd2565b820191906000526020600020905b815481529060010190602001808311612bb557829003601f168201915b505050505090806007018054612be790613e12565b80601f0160208091040260200160405190810160405280929190818152602001828054612c1390613e12565b8015612c605780601f10612c3557610100808354040283529160200191612c60565b820191906000526020600020905b815481529060010190602001808311612c4357829003601f168201915b5050506008909301549192505060ff1689565b600d6020526000908152604090208054600182015460028301805492939192612c9b90613e12565b80601f0160208091040260200160405190810160405280929190818152602001828054612cc790613e12565b8015612d145780601f10612ce957610100808354040283529160200191612d14565b820191906000526020600020905b815481529060010190602001808311612cf757829003601f168201915b505050505090806003015490806004018054612d2f90613e12565b80601f0160208091040260200160405190810160405280929190818152602001828054612d5b90613e12565b8015612da85780601f10612d7d57610100808354040283529160200191612da8565b820191906000526020600020905b815481529060010190602001808311612d8b57829003601f168201915b505050505090806005015490806006018054612dc390613e12565b80601f0160208091040260200160405190810160405280929190818152602001828054612def90613e12565b8015612e3c5780601f10612e1157610100808354040283529160200191612e3c565b820191906000526020600020905b815481529060010190602001808311612e1f57829003601f168201915b505050505090806007018054612e5190613e12565b80601f0160208091040260200160405190810160405280929190818152602001828054612e7d90613e12565b8015612eca5780601f10612e9f57610100808354040283529160200191612eca565b820191906000526020600020905b815481529060010190602001808311612ead57829003601f168201915b5050506008909301549192505060ff808216916001600160a01b0361010082041691600160a81b909104168b565b336000908152600b602052604090205460ff1615612f585760405162461bcd60e51b815260206004820152601a60248201527f5573657220697320616c726561647920726567697374657265640000000000006044820152606401610974565b60028054906000612f6883613db4565b9091555050336000818152600b60209081526040808320805460ff19166001908117909155600a80548083019091557fc65a7bb8d6351c1cf70c95a316cc6a92839c986682d98bc35f958f4883f9d2a80180546001600160a01b031990811687179091558251610120810184528681528085018e81528185018e9052606082018d9052608082018c905260a082018b905260c082018a905260e0820189905261010082018790529686526009855292909420825181546001600160a01b039190911695169490941784559351805191946130489390850192910190613468565b50604082015160028201556060820151805161306e916003840191602090910190613468565b506080820151805161308a916004840191602090910190613468565b5060a082015180516130a6916005840191602090910190613468565b5060c082015180516130c2916006840191602090910190613468565b5060e082015180516130de916007840191602090910190613468565b5061010091909101516008909101805460ff191691151591909117905550505050505050565b3360009081526008602052604090205460ff166131635760405162461bcd60e51b815260206004820152601f60248201527f4f6e6c7920696e73706563746f72732063616e20766572696679206c616e64006044820152606401610974565b6000908152600d60205260409020600801805460ff60a81b1916600160a81b179055565b60008060606000606060006060600080600060606000600d60008e8152602001908152602001600020905080600001548160010154826002018360030154846004018560050154866006018760080160009054906101000a900460ff168860080160019054906101000a90046001600160a01b03168960080160159054906101000a900460ff168a60070188805461321e90613e12565b80601f016020809104026020016040519081016040528092919081815260200182805461324a90613e12565b80156132975780601f1061326c57610100808354040283529160200191613297565b820191906000526020600020905b81548152906001019060200180831161327a57829003601f168201915b505050505098508680546132aa90613e12565b80601f01602080910402602001604051908101604052809291908181526020018280546132d690613e12565b80156133235780601f106132f857610100808354040283529160200191613323565b820191906000526020600020905b81548152906001019060200180831161330657829003601f168201915b5050505050965084805461333690613e12565b80601f016020809104026020016040519081016040528092919081815260200182805461336290613e12565b80156133af5780601f10613384576101008083540402835291602001916133af565b820191906000526020600020905b81548152906001019060200180831161339257829003601f168201915b505050505094508080546133c290613e12565b80601f01602080910402602001604051908101604052809291908181526020018280546133ee90613e12565b801561343b5780601f106134105761010080835404028352916020019161343b565b820191906000526020600020905b81548152906001019060200180831161341e57829003601f168201915b505050505090509b509b509b509b509b509b509b509b509b509b509b505091939597999b90929496989a50565b82805461347490613e12565b90600052602060002090601f01602090048101928261349657600085556134dc565b82601f106134af57805160ff19168380011785556134dc565b828001600101855582156134dc579182015b828111156134dc5782518255916020019190600101906134c1565b506134e89291506134ec565b5090565b5b808211156134e857600081556001016134ed565b60006020828403121561351357600080fd5b5035919050565b80356001600160a01b038116811461353157600080fd5b919050565b60006020828403121561354857600080fd5b6135518261351a565b9392505050565b6020808252825182820181905260009190848201906040850190845b8181101561359057835183529284019291840191600101613574565b50909695505050505050565b634e487b7160e01b600052604160045260246000fd5b600082601f8301126135c357600080fd5b813567ffffffffffffffff808211156135de576135de61359c565b604051601f8301601f19908116603f011681019082821181831017156136065761360661359c565b8160405283815286602085880101111561361f57600080fd5b836020870160208301376000602085830101528094505050505092915050565b6000806040838503121561365257600080fd5b82359150602083013567ffffffffffffffff81111561367057600080fd5b61367c858286016135b2565b9150509250929050565b6000815180845260005b818110156136ac57602081850181015186830182015201613690565b818111156136be576000602083870101525b50601f01601f19169290920160200192915050565b8681526001600160a01b038616602082015260c0604082018190526000906136fd90830187613686565b85606084015282810360808401526137158186613686565b905082810360a08401526137298185613686565b9998505050505050505050565b6001600160a01b038a1681526101206020820181905260009061375b8382018c613686565b90508960408401528281036060840152613775818a613686565b905082810360808401526137898189613686565b905082810360a084015261379d8188613686565b905082810360c08401526137b18187613686565b905082810360e08401526137c58186613686565b9150508215156101008301529a9950505050505050505050565b60006020808301818452808551808352604092508286019150828160051b87010184880160005b8381101561389e57888303603f19018552815180518452878101516001600160a01b0316888501528681015160c08886018190529061384782870182613686565b91505060608083015181870152506080808301518683038288015261386c8382613686565b9250505060a0808301519250858203818701525061388a8183613686565b968901969450505090860190600101613806565b509098975050505050505050565b60006020808301818452808551808352604092508286019150828160051b87010184880160005b8381101561389e57888303603f19018552815180516001600160a01b0316845261012088820151818a87015261390b82870182613686565b91505087820151888601526060808301518683038288015261392d8382613686565b92505050608080830151868303828801526139488382613686565b9250505060a080830151868303828801526139638382613686565b9250505060c0808301518683038288015261397e8382613686565b9250505060e080830151868303828801526139998382613686565b925050506101008083015192506139b38187018415159052565b5095880195935050908601906001016138d3565b600080600080600060a086880312156139df57600080fd5b6139e88661351a565b9450602086013567ffffffffffffffff80821115613a0557600080fd5b613a1189838a016135b2565b9550604088013594506060880135915080821115613a2e57600080fd5b613a3a89838a016135b2565b93506080880135915080821115613a5057600080fd5b50613a5d888289016135b2565b9150509295509295909350565b600080600080600080600060e0888a031215613a8557600080fd5b87359650602088013567ffffffffffffffff80821115613aa457600080fd5b613ab08b838c016135b2565b975060408a0135965060608a0135915080821115613acd57600080fd5b613ad98b838c016135b2565b955060808a0135945060a08a0135915080821115613af657600080fd5b613b028b838c016135b2565b935060c08a0135915080821115613b1857600080fd5b50613b258a828b016135b2565b91505092959891949750929550565b634e487b7160e01b600052602160045260246000fd5b8681526001600160a01b038681166020830152851660408201526060810184905260c0810160058410613b8d57634e487b7160e01b600052602160045260246000fd5b83608083015282151560a0830152979650505050505050565b60006101608d83528c6020840152806040840152613bc68184018d613686565b90508a60608401528281036080840152613be0818b613686565b90508860a084015282810360c0840152613bfa8189613686565b905082810360e0840152613c0e8188613686565b95151561010084015250506001600160a01b039290921661012083015215156101409091015298975050505050505050565b600080600080600080600060e0888a031215613c5b57600080fd5b873567ffffffffffffffff80821115613c7357600080fd5b613c7f8b838c016135b2565b985060208a0135975060408a0135915080821115613c9c57600080fd5b613ca88b838c016135b2565b965060608a0135915080821115613cbe57600080fd5b613cca8b838c016135b2565b955060808a0135915080821115613ce057600080fd5b613cec8b838c016135b2565b945060a08a0135915080821115613af657600080fd5b60006101608d83528c6020840152806040840152613d228184018d613686565b90508a60608401528281036080840152613d3c818b613686565b90508860a084015282810360c0840152613d568189613686565b87151560e08501526001600160a01b0387166101008501528515156101208501528381036101408501529050613d8c8185613686565b9e9d5050505050505050505050505050565b634e487b7160e01b600052601160045260246000fd5b6000600019821415613dc857613dc8613d9e565b5060010190565b634e487b7160e01b600052603260045260246000fd5b600082821015613df757613df7613d9e565b500390565b634e487b7160e01b600052603160045260246000fd5b600181811c90821680613e2657607f821691505b6020821081141561238c57634e487b7160e01b600052602260045260246000fdfea26469706673582212200f81f42173ffba73078ba45d2bf458cd2a4f05704c117153b0bac610c667f3db64736f6c63430008080033",
  "linkReferences": {},
  "deployedLinkReferences": {}
}